:020000040800F2
:10340000F006002045350008ED390008E5390008D0
:10341000E93900088D35000853420008000000001B
:10342000000000000000000000000000E13B000878
:103430009135000800000000C93A0008B53C0008BA
:103440005F3500085F3500085F3500085F3500080C
:103450005F3500085F3500085F3500085F350008FC
:103460005F3500085F3500085F3500085F350008EC
:103470005F3500085F3500085F3500085F350008DC
:103480005F3500085F3500085F3500085F350008CC
:103490005F3500085F3500085F3500085F350008BC
:1034A0005F3500085F3500085F3500085F350008AC
:1034B000193D00085F3500085F3500085F350008DA
:1034C0005F3500085F3500085F3500085F3500088C
:1034D0005F3500085F350008193F0008CD3F000840
:1034E000953500085F3500085F3500085F35000836
:1034F0005F3500085F3500085F3500085F3500085C
:103500005F3500085F3500085F3500085F3500084B
:103510005F3500085F3500085F3500085F3500083B
:103520005F3500085F3500085F3500085F3500082B
:10353000DFF80CD000F018F80048004709480008F0
:10354000F00600200648804706480047FEE7FEE7F1
:10355000FEE7FEE7FEE7FEE7FEE7FEE7FEE7FEE743
:10356000B93C000831350008064C074D06E0E0681C
:1035700040F0010394E8070098471034AC42F6D3BA
:10358000FFF7DAFF204C0008404C000800BFFEE7C0
:103590007047000010B54FF4804000F023F868B188
:1035A0004FF4804000F018F809480078401C0849A2
:1035B000087008480088401C064908804FF4004005
:1035C00000F010F818B14FF4004000F005F810BDFD
:1035D00073000020100000200149086070470000BF
:1035E00014040140014600200022074B1B6803EA37
:1035F0000102064BD3F814340B4202D00AB1012069
:1036000000E000207047000000040140000001407D
:10361000002127498279DAB3264AD2F800240368C8
:103620009A43244BC3F800241A46D2F804240368B2
:103630009A4301F104031A60027911440A6803688D
:1036400042EA03020A601B4AD2F80824036822EA0D
:103650000302184BC3F808241A46D2F80C24036856
:1036600022EA0302144B1A604279102A11D1114A3E
:10367000D2F8082403681A430E4BC3F808241A46EC
:10368000D2F80C2403681A430A4BC3F80C240EE04A
:1036900007E00749427911440A6803681A430A603F
:1036A00005E0027911440A6803689A430A6070478A
:1036B00000040140000001400C04014030B5044604
:1036C00004254FF4302000F083F80546042D17D16F
:1036D0000C48006940F002000A490861084644614C
:1036E000006940F0400008614FF4302000F070F8AD
:1036F00005460448006941F6FD710840014908612A
:10370000284630BD0020024004200C49C96801F061
:103710000101012901D101200EE00849C96811F019
:10372000040F01D0022007E00449C96811F0100F0E
:1037300001D0032000E00420704700000020024078
:103740000348006940F080000149086170470000AB
:1037500000200240F0B504460D4604260027F00282
:1037600000F036F80646042E22D11248006940F0D7
:103770000100104908612580F00200F029F8064692
:10378000042E0ED1A71C280C3880F00200F020F87F
:1037900006460848006941F6FE710840054908617F
:1037A00006E00448006941F6FE71084001490861DD
:1037B0003046F0BD002002400248034948600348FB
:1037C000486070472301674500200240AB89EFCD78
:1037D00000B502460423FFF797FF034603E0FFF717
:1037E00093FF0346521E012B01D1002AF7D102B9E3
:1037F0000523184600BD000030B500228B071C0FC2
:103800000F2303FA04F20B4B8C1053F8243093432C
:10381000084C8D1044F8253023468C1053F8243082
:103820008C07240F00FA04F42343024C8D1044F853
:10383000253030BD080001402DE9F0410246002549
:103840000026002000230024002791F803C00CF07C
:103850000F0591F803C01CF0100F03D091F802C0BF
:103860004CEA0505B1F800C01CF0FF0F31D0146818
:1038700000202BE04FF0010C0CFA00F3B1F800C06F
:103880000CEA03069E4220D183004FF00F0C0CFA85
:1038900003F7BC4305FA03FC4CEA040491F803C0A7
:1038A000BCF1280F06D14FF0010C0CFA00FCC2F855
:1038B00014C00AE091F803C0BCF1480F05D14FF0E5
:1038C000010C0CFA00FCC2F810C0401C0828D1D32F
:1038D0001460B1F800C0BCF1FF0F34DD5468002063
:1038E0002EE000F1080C4FF0010808FA0CF3B1F8D3
:1038F00000C00CEA03069E4221D183004FF00F0C5A
:103900000CFA03F7BC4305FA03FC4CEA040491F8F3
:1039100003C0BCF1280F05D100F1080C08FA0CF81F
:10392000C2F8148091F803C0BCF1480F07D100F130
:10393000080C4FF0010808FA0CF8C2F81080401C7F
:103940000828CED35460BDE8F0810000F0B50A46E7
:10395000002300240021002500F00046B6F1004FAE
:1039600002D11D4EF16901E01B4E7168C0F30345A1
:1039700083B200F44016B6F5401F08D121F0706103
:10398000154E766826F07066134F7E6012E000F4E4
:103990008016B6F5801F06D1032606FA05F4A1436A
:1039A00041F0706106E0460D360103FA06F6B143B8
:1039B00041F0706122B1460D360103FA06F631433B
:1039C00000F00046B6F1004F02D1034EF16101E074
:1039D000014E7160F0BD0000000001404161704780
:1039E0000161704700BFFEE700BFFEE770470000BF
:1039F00070B5002100230F22C4784CB31A4C246800
:103A000004F4E064C4F5E0644FEA1421C1F1040356
:103A100022FA01F2447804FA03F1847804EA0204F9
:103A200044EA01014FEA0111104C0678A1550478CF
:103A300004F01F054FF0010404FA05F405784FEA7D
:103A400065154FF0E02606EB8505C5F8004109E055
:103A5000047804F01F050124AC40054D067876116A
:103A600045F8264070BD00000CED00E000E400E0E9
:103A700080E100E002490143024A11607047000002
:103A80000000FA050CED00E0024A0A400243024B36
:103A90001A60704780FFFF1F08ED00E008480068CB
:103AA00000F4E060074940EA010000F104004FF033
:103AB000E021C1F80C0DBFF3408F00BFFEE700000E
:103AC0000CED00E00000FA057047000029B1064A3D
:103AD000D2690243044BDA6104E0034AD2698243AB
:103AE000014BDA61704700000010024029B1064A1C
:103AF00092690243044B9A6104E0034A926982434B
:103B0000014B9A61704700000010024030B500215F
:103B10000022002400232D4D6D6805F00C0121B119
:103B2000042905D0082923D105E0294D056022E0AC
:103B3000274D05601FE0254D6D6805F47012234D7B
:103B40006D6805F48034022505EB92421CB9214DC5
:103B5000554305600BE01D4D6D6815F4003F03D023
:103B60001C4D5543056002E0194D5543056002E0C8
:103B7000174D056000BF00BF144D6D6805F0F001E2
:103B80000909154D6B5C0568DD4045600F4D6D689A
:103B900005F4E061090A104D6B5C4568DD40856005
:103BA0000A4D6D6805F46051C90A0B4D6B5C4568A0
:103BB000DD40C560054D6D6805F44041890B074D3A
:103BC0006B5CC568B5FBF3F5056130BD00100240C4
:103BD00000127A0000093D0012000020220000209F
:103BE000704710B500F002F810BD00000021002061
:103BF0002E4A126842F480322C4B1A6000BF2B4AC6
:103C0000126802F40030491C10B9B1F5A06FF6D16A
:103C1000264A126812F4003F01D0012000E0002083
:103C2000012842D1224A126842F01002204B1A6049
:103C30001A46126822F003021A601A46126842F00D
:103C400002021A60194A5268184B5A601A465268A2
:103C50005A601A46526842F480625A601A465268A4
:103C600022F47C125A601A46526842F4E8125A60F2
:103C70001A46126842F080721A6000BF0B4A12683E
:103C800012F0007FFAD0094A526822F00302074B73
:103C90005A601A46526842F002025A6000BF034A54
:103CA000526802F00C02082AF9D170470010024055
:103CB000002002407047000010B51348006840F033
:103CC00001001149086008464068104908400E4943
:103CD0004860084600680E4908400B4908600846DD
:103CE000006820F4802008600846406820F4FE0048
:103CF00048604FF41F008860FFF773FF4FF00060CB
:103D00000449086010BD0000001002400000FFF8E8
:103D1000FFFFF6FE08ED00E010B50121880700F076
:103D200035F868B10121880700F021F805480078CE
:103D30000549888000200349087001200349087064
:103D400010BD0000730000202800002000000020AB
:103D500021B1028842F08002028004E002884FF61E
:103D60007F731A4002807047CA4302827047CA4379
:103D70000282704721B1028842F00102028004E011
:103D800002884FF6FE731A400280704730B5024633
:103D9000002000230024158A05EA0103958905EA1D
:103DA000010413B10CB1012000E0002030BD10B5BA
:103DB0001AB183890B43838104E08389CC43A4B285
:103DC0002340838110BD000070B500240022002331
:103DD000058C4FF6FF6635400584028C8388848B02
:103DE0004FF68F752C404FF6FC752C400D882C43F8
:103DF0004FF6FF552A400D892D0642EA15424D889F
:103E00002D0642EA1542144DA84202D0134DA84295
:103E10001BD14FF2FF752A404D892D0642EA15420B
:103E20004FF6FF352A408D882D0642EA15424EF6A0
:103E3000FF752B404DF6FF752B408D892D0543EA0C
:103E40001543CD892D0543EA154383808483CD88AE
:103E50008587028470BD0000002C014000340140C1
:103E60000A460021818B4FF6F77319401143818375
:103E700070470000002202881D4B98420ED01D4B57
:103E800098420BD0B0F1804F08D01B4B984205D020
:103E90001A4B984202D01A4B984204D14FF68F73B6
:103EA0001A404B881A43174B984207D0164B98423A
:103EB00004D04FF6FF431A40CB881A4302808B8808
:103EC00083850B8803850A4B98420BD0094B984297
:103ED00008D00E4B984205D00D4B984202D00D4BA6
:103EE000984201D10B7A0386012383827047000038
:103EF000002C014000340140000400400008004054
:103F0000000C004000100040001400400040014040
:103F1000004401400048014010B5002440F2255102
:103F2000254800F0D5F870B340F22551224800F042
:103F3000A7F8214800F088F9C4B220480078012889
:103F400022D11F480078002807DD1D48017800783D
:103F5000401C1B4A10701B484454AA2C0AD1184814
:103F6000007838B9164801780078401C144A10705F
:103F7000144844541248007809281BDB00201049DB
:103F8000087000F069FD15E00C480078022811D196
:103F90000B4801780078401C094A107009484454C5
:103FA00010460078092805DB002011460870012022
:103FB0000549087010BD00000044004003000020C7
:103FC00026000020880000207E00002010B500247C
:103FD00040F22551254800F07BF870B340F225519E
:103FE000224800F04DF8214800F02EF9C4B22048D4
:103FF0000078012822D11F480078002807DD1D48DD
:1040000001780078401C1B4A10701B484454AA2CAD
:104010000AD11848007838B9164801780078401C51
:10402000144A1070144844541248007809281BDBC5
:1040300000201049087000F061FD15E00C48007880
:10404000022811D10B4801780078401C094A1070F1
:104050000948445410460078092805DB0020114621
:10406000087001200549087010BD0000004800409C
:104070000300002026000020880000207E00002091
:1040800010B500220023A1F510646A3C00D100BFE6
:104090000A1201249440A3B2DC43048010BD21B174
:1040A000828942F40052828104E082894DF6FF73D6
:1040B0001A408281704702460020B1F5007F00D18E
:1040C00000BF13880B4201D0012000E000207047A0
:1040D00070B502460024002300250020A1F51066DB
:1040E0006A3E00D100BFC1F3421501F01F03012653
:1040F00006FA03F3012D02D19689334006E0022D22
:1041000002D1168A334001E0968A33400C12012610
:1041100006FA04F41688344013B10CB1012000E013
:10412000002070BDF0B503460024002600250020C5
:10413000A1F510676A3F00D100BF1846C1F34214D1
:1041400001F01F06012707FA06F5012C01D10C30FA
:1041500004E0022C01D1103000E014301AB10768DD
:104160002F43076002E00768AF430760F0BD00001F
:104170002DE9F04786B005460E460024A24600BF52
:10418000A1460027B08900B100BF2F462C8A4CF60B
:10419000FF700440F08804432C82AC894EF6F31083
:1041A0000440B08831890843718908430443AC81D5
:1041B000AC8A4FF6FF400440B0890443AC8201A8AA
:1041C000FFF7A4FC1F48874202D1DDF810A001E0F0
:1041D000DDF80CA0A88910F4004F08D00AEBCA0043
:1041E00000EB0A1031684900B0FBF1F807E00AEB78
:1041F000CA0000EB0A1031688900B0FBF1F86420B6
:10420000B8FBF0F004012009642101FB1089A889A2
:1042100010F4004F08D0322000EBC900B0FBF1F0E1
:1042200000F00700044308E0322000EB091064218D
:10423000B0FBF1F000F00F0004432C8106B0BDE8A4
:10424000F08700000038014001468888C0F308006C
:10425000704700BFFEE702E008C8121F08C1002A2D
:10426000FAD170477047002001E001C1121F002AF7
:10427000FBD170471CB50E210120FFF7BDFA4FF4AA
:104280008040009000208DF8040008208DF8050083
:1042900001208DF806006846FFF7BAF90F210120CA
:1042A000FFF7AAFA4FF40040009000208DF80400B8
:1042B00008208DF8050001208DF806006846FFF7FC
:1042C000A7F91CBD70B503460C46002011E0151877
:1042D00005F1006529681954C1F30726451C5E5590
:1042E000C1F30746851C5E550D0EC61C9D55051D68
:1042F000A8B2A042EBDB70BD2DE9F0470546894628
:104300009246002400260AF10068B8F1006F02D33B
:104310001648804501D3BDE8F087FFF74DFA4046C7
:10432000FFF7CCF90746042F00D0F4E718E02E5D24
:10433000601C285C06EB0026A01C285C06EB0046EF
:10434000E01C285C06EB006631464046FFF702FAA7
:104350000746042F00D0DEE708F10408201D84B2D0
:104360004C45E4DBFFF7ECF900BFD4E7000001089F
:1043700008B501214F48FFF7E9FA0420ADF8000025
:1043800003208DF8020018208DF8030069464A4882
:10439000FFF752FA0820ADF8000004208DF8030062
:1043A00069464548FFF748FA4020ADF80000032071
:1043B0008DF8020010208DF8030069463E48FFF793
:1043C0003BFA8020ADF8000010208DF8030069460C
:1043D0003948FFF731FA4FF48060ADF80000032050
:1043E0008DF8020018208DF8030069463348FFF766
:1043F00023FA4FF40060ADF8000004208DF80300AC
:1044000069462E48FFF718FA4FF40040ADF8000057
:1044100028208DF8030069462848FFF70DFA4FF46D
:104420008040ADF8000028208DF80300694623483D
:10443000FFF702FA4FF48070ADF8000018208DF8F5
:10444000030003208DF8020069461C48FFF7F4F9C9
:10445000C0211948FFF7C4FA4FF40040ADF800003E
:1044600010208DF8030069461348FFF7E5F908208E
:10447000ADF8000010208DF8030069460F48FFF7E3
:10448000DBF91020ADF800008DF8030069460B48F9
:10449000FFF7D2F948F2C0010748FFF7A1FA182147
:1044A0000648FFF79DFA4FF400410348FFF796FADC
:1044B00008BD00000004300000080140000C01406D
:1044C00010B5C448007801287ED1C348007801287F
:1044D0007AD10020C0490870C0484078112817D10F
:1044E000BE48C078BD49897800EB0120BC490880EE
:1044F000084600880012BB490870B9480088487017
:104500000921B94800F0E0FA0921B74800F02EFB74
:10451000B2484078122817D1B048C078AF4989789E
:1045200000EB0120B1490880084600880012AD491F
:104530008870AE480088C8700921AB4800F0C4FA02
:104540000921A94800F012FBA4484078132830D173
:10455000A248C078A149897800EB0120A4490880CD
:1045600008460088B0F5184F10D1084600880012A0
:104570009C4908719E480088487109219A4800F0BA
:10458000A3FA0921984800F0F1FA12E000209849B6
:1045900008800846008800129249087194480088F3
:1045A00048710921934800F08FFA0921914800F0E1
:1045B000DDFA8A484078142811D18848C0788749A4
:1045C000897800EB012000E047E08B490880092151
:1045D000854800F079FA0921834800F0C7FA864837
:1045E000008880B17E48008868B18048008850B15A
:1045F0007F480088B0F5184F05D102207549087032
:1046000000207E49088075484078812810D17C4977
:104610004880734800888880714800880012C880EC
:104620000921774800F050FA0921754800F09EFAF8
:104630006A484078822810D1714948806B480088C8
:1046400088806A4800880012C88009216C4800F000
:104650003BFA09216A4800F089FA5E48007802288E
:1046600076D15D480078012872D100205A4908703F
:104670005A48407821283ED1604908885749C9786E
:10468000564A927801EB022100EBD072B1EB620F37
:1046900029D152490979594A1088C21700EBD252E0
:1046A0005212A0EB4222574B995454480088401CA8
:1046B0005249088049490979504A1088C21700EBCD
:1046C000D2525212A0EB422299544C480088401C0E
:1046D0004A4908800921444800F0F6F90921424876
:1046E00000F044FA07E00921424800F0EDF9092101
:1046F0003D4800F03BFA41490888C11700EBD15111
:104700004912B0EB41210BD13C49098841B13B48EA
:10471000008800F516424FF400713A48FFF7ECFDAF
:104720003649088800EBD071334A1288B2EB610F2A
:104730000ED13248008800F516424FF4007131481E
:10474000FFF7DAFD03202349087000202B49088079
:1047500020480078032818D11F480078012814D178
:1047600000201D4908704FF47C4208211D48FFF7C6
:10477000C3FD002020490880194908801B49088092
:104780001B49088004201349087012480078032848
:1047900001D1FFF783F911484078FA2818D10F4862
:1047A0008078FB2814D10D48C078FC2810D10B4824
:1047B0000079FD280CD109484079FE2808D1064827
:1047C0000078012804D1002003490870FFF766F93A
:1047D00010BD00007F0000207E0000208800002027
:1047E00076000020800000203A00002078000020A1
:1047F0007A0000204C000020740000207C00002083
:1048000028000020EC00002010B54FF450514FF06C
:104810000060FFF739F94FF47C4208212548FFF783
:1048200051FD342023490871002048714FF47C4227
:1048300008212048FFF760FD00F099F8FFF798FD88
:1048400000F0AEF900F044F8FFF714FD00F0AEF808
:104850000020194908701CE018480078012818D178
:1048600000201649087016480088401C144908802A
:104870000921144800F028F90921124800F076F9BE
:104880000F480088142804DB00200D49088000F040
:1048900087F90D4800780128DED005E00B48007844
:1048A000012801D1FFF70CFE074800780228F5D057
:1048B000002010BD0800002026000020000000207D
:1048C0000600002028000020030000207E000020B9
:1048D00008B54FF4E060FFF7CDF80A208DF800002E
:1048E00000208DF801008DF8020001208DF80300F2
:1048F0006846FFF77DF828208DF8000000208DF82D
:10490000010001208DF802008DF803006846FFF7D2
:104910006FF81C208DF8000000208DF801000220A7
:104920008DF8020001208DF803006846FFF760F85B
:1049300026208DF8000000208DF8010003208DF85E
:10494000020001208DF803006846FFF751F8272088
:104950008DF8000000208DF8010004208DF8020081
:1049600001208DF803006846FFF742F808BD10B536
:1049700001210420FFF7BAF801210820FFF7B6F85B
:1049800001210846FFF7B2F801214804FFF79EF81D
:1049900001218804FFF79AF801210420FFF796F817
:1049A00001210846FFF792F810BD000000B587B05E
:1049B00040F2CF70ADF814000220ADF810000020D6
:1049C000ADF81600ADF8120004A92248FFF752FA1C
:1049D0006020ADF800000120ADF80200C820ADF85D
:1049E00006000020ADF8080069461A48FFF7ECF908
:1049F00008211848FFF734FA01211648FFF7A8F9F3
:104A000001211448FFF7B6F94FF41660ADF8140011
:104A100042F20F70ADF810000020ADF81600ADF8AE
:104A2000120004A94FF08040FFF724FA0121880703
:104A3000FFF79AF9012211469007FFF7B8F9012113
:104A40008807FFF785F901218807FFF793F907B079
:104A500000BD0000000800400020164908801648EC
:104A6000007A55280AD114484078022806D1124805
:104A7000807800EB80008000104908800E48407864
:104A8000AB2815D10C488078AC2811D10A48C078E1
:104A9000AD280DD108480079AE2809D106484079E3
:104AA000AF2805D101200649087002200549087089
:104AB0007047000006000020880000203C080040ED
:104AC0007F0000200300002070B505460E4600243C
:104AD0000FE035F81400C0F308000749088000BF54
:104AE00080210548001FFFF7E6FA0028F8D0601C77
:104AF000C4B2092CEDDB70BD04440040002016490F
:104B000008801648007A55280AD1144840780228AF
:104B100006D11248807800EB8000800010490880A0
:104B20000E484078AB2815D10C488078AC2811D1BC
:104B30000A48C078AD280DD108480079AE2809D1BF
:104B400006484079AF2805D10120064908700220A7
:104B5000054908707047000006000020880000200A
:104B60003C0800407F0000200300002070B505468F
:104B70000E4600240FE035F81400C0F30800074982
:104B8000088000BF80210548001FFFF794FA002825
:104B9000F8D0601CC4B2092CEDDB70BD04480040A5
:104BA0001FB54FF4614000900020ADF80400ADF84F
:104BB0000600ADF80800ADF80C000C20ADF80A00B6
:104BC00069461548FFF7D4FA012240F225511248F0
:104BD000FFF7A8FA01211048FFF761FA4FF4E1301E
:104BE00000900020ADF80400ADF80600ADF8080014
:104BF000ADF80C000C20ADF80A0069460748FFF735
:104C0000B7FA012240F225510448FFF78BFA01213F
:104C10000248FFF744FA1FBD00440040004800402E
:104C2000404C0008000000208800000056420008A8
:104C3000C84C000888000020680600006642000892
:104C4000000101010034000000000000000000002D
:104C50000000000000000102030401020304060733
:104C600008090204060800005500010000000000C9
:104C70000000000000000800AA005500FF004F00DF
:104C80004B000000000000000100AA005500FF00DA
:104C9000450052005200000000000100AA00000080
:104CA00055000100000000000000000000000000AE
:104CB000AA0000000000100020000000000000001A
:084CC0000000000000000000EC
:040000050800353189
:00000001FF
